:020000040800F2
:1000000000000120E5010008211300082513000865
:10001000291300082D130008311300080000000008
:100020000000000000000000000000003513000880
:100030003913000800000000E10100083D1300082A
:10004000E1010008E1010008E10100084513000892
:10005000E1010008E101000841130008E101000886
:10006000E1010008E1010008E1010008E1010008E8
:10007000E1010008E1010008E1010008E1010008D8
:10008000E1010008E1010008E1010008E1010008C8
:10009000E1010008E1010008E1010008E1010008B8
:1000A000E1010008E1010008E1010008E1010008A8
:1000B000E1010008E1010008E1010008E101000898
:1000C000E1010008E1010008E1010008E101000888
:1000D000E1010008CD100008E1010008E10100087D
:1000E000E1010008E1010008E1010008E101000868
:1000F000E1010008E1010008E1010008E101000858
:10010000E1010008E1010008E1010008E101000847
:10011000E1010008E1010008E1010008E101000837
:10012000E1010008E1010008E1010008E101000827
:1001300000000000000000000000000000000000BF
:1001400000000000000000000000000000000000AF
:10015000000000000000000000000000000000009F
:10016000000000000000000000000000000000008F
:10017000000000000000000000000000000000007F
:10018000000000000000000000000000000000006F
:10019000000000000000000000000000000000005F
:1001A000000000000000000000000000000000004F
:1001B000000000000000000000000000000000003F
:1001C000000000000000000000000000000000002F
:1001D0000000000000000000000000005FF8E0F1F7
:1001E000FEE700BF684620F007018D46194A1A490C
:1001F00008B591420FD0194B9A420CD2D44308460D
:10020000234423F0030304330B4450F8041B9842A7
:1002100042F8041BF9D1124A124B9A420BD2D04336
:10022000034423F00303043311461344002241F82E
:10023000042B9942FBD10C4B0C4A23F0684323F06A
:100240007F0343F00063936000F0B4FF01F07CF89B
:10025000FEE700BF00000020901E00089000002074
:1002600090000020E80000200000000000ED00E009
:100270001349144A10B491420FD0134882420CD251
:10028000D4430B46204420F003000430084453F8C4
:10029000041B834242F8041BF9D10C490C4A9142D9
:1002A0000BD2C843024422F0030204320B460A4434
:1002B000002143F8041B9A42FBD110BC704700BFD9
:1002C000901E0008000000209000002090000020F8
:1002D000E800002008B54FF4A06000F009F800F035
:1002E000BDFDBDE808404FF4E13000F007BE00BF9F
:1002F00040F0BF60024B40F40030D860704700BF50
:1003000000ED00E0C3785BB9037801215A09164873
:1003100003F01F03203201FA03F340F82230704744
:10032000124B30B4D9688278C9434478C1F30221B2
:100330000F23C1F10405CB40AC40134002782343A6
:100340001B0102F16042DBB202F5614282F8003328
:100350000378012203F01F0003495B09824041F842
:10036000232030BC704700BF00E100E000ED00E05A
:1003700021F0604121F07F01014B084398607047F4
:1003800000ED00E0044A136919B923EA0000106186
:10039000704718431061704700ED00E0044A0428DC
:1003A00013680CBF43F0040323F004031360704789
:1003B00010E000E008B52F4B98421ED02E4B98421B
:1003C00025D02E4B98422CD02D4B984233D02D4B1C
:1003D00098423AD02C4B984241D02C4B984200D0B6
:1003E00008BD01214FF4807000F0B6FABDE8084066
:1003F00000214FF4807000F0AFBA0121042000F01A
:10040000ABFABDE808400021042000F0A5BA0121A4
:10041000082000F0A1FABDE808400021082000F003
:100420009BBA0121102000F097FABDE80840002196
:10043000102000F091BA0121202000F08DFABDE8D3
:1004400008400021202000F087BA0121402000F060
:1004500083FABDE808400021402000F07DBA012168
:10046000802000F079FABDE808400021802000F0EB
:1004700073BA00BF00080140000C014000100140A9
:100480000014014000180140001C01400020014000
:1004900008B50121084600F05FFABDE808400021D8
:1004A000012000F059BA00BF2DE9F041CC78E306F5
:1004B00048BF8B78098804F00F0748BF1F4311F02D
:1004C000FF0F21D0066800234FF0010E4FF00F08F8
:1004D00002E00133082B16D00EFA03F232EA0105CE
:1004E000F7D19D0008FA05FC26EA0C0607FA05F587
:1004F000282C46EA050631D0482C03F1010308BF39
:100500000261082BE8D10660FF2923D94668002341
:100510004FF0010E4FF00F0802E00133082B18D006
:1005200003F108020EFA02F232EA0105F5D19D004C
:1005300008FA05FC26EA0C0607FA05F5282C46EA17
:10054000050609D0482C03F1010308BF0261082BFE
:10055000E6D14660BDE8F0814261DEE74261B8E77E
:100560004FF6FF710222042301808270C37070472E
:100570008368194214BF012000207047806880B250
:10058000704700BFC368194214BF012000207047A4
:10059000C06880B2704700BF016170474161704719
:1005A0000AB9416170470161704700BFC16070477F
:1005B00041F480338361816183618369836970471A
:1005C0004FF68073044A10B414682340194341EA7B
:1005D0000010106010BC704700000140014B186013
:1005E000704700BF1C0020420028194B00F4401245
:1005F000B4BFDB695B68B2F5401F30B484B21ED073
:10060000C20213D5C0F303450322AA4023EA020322
:1006100043F0706319B1420D1201944023430C4A18
:100620000028B4BFD361536030BC7047420D120143
:1006300004FA02F223EA020343F07063EAE7044D8E
:1006400023F070636A6822F070626A60E2E700BFBC
:100650000000014001F0FC0303F1804303F5803307
:1006600001F0030110B489009C680F228A4024EA3B
:1006700002029A609A6888401043986010BC7047E4
:10068000014B1860704700BFDC0020420D4B0E4A42
:1006900019684FF41F0041F00101196059680A40C0
:1006A0005A601A6822F0847222F480321A601A6842
:1006B00022F480221A605A6822F4FE025A6098607E
:1006C000704700BF001002400000FFF80C4BB0F56F
:1006D000803F1A6822F480321A601A6822F480225D
:1006E0001A6008D0B0F5802F04D11A6842F4A02215
:1006F0001A60704770471A6842F480321A60704777
:100700000010024082B000230A4A019302E0B3F5D0
:10071000A06F08D0136813F4003F019B03F101039D
:100720000193019BF3D0034B1868C0F3404002B023
:10073000704700BF00100240034A136823F0F8031B
:1007400043EAC0001060704700100240014B18607F
:10075000704700BF00004242034A536823F47C13F1
:10076000194308435060704700100240014B186065
:10077000704700BF60004242034A536823F00303FE
:1007800018435060704700BF00100240024B586889
:1007900000F00C00704700BF00100240034A53688D
:1007A00023F0F00318435060704700BF0010024070
:1007B000034A536823F4E06318435060704700BF56
:1007C00000100240034A536823F4605343EAC00018
:1007D000506070470010024029B9054A137823EA97
:1007E000000010707047024B1A7810431870704761
:1007F00009100240014B1860704700BFD800424208
:10080000034A536823F4404318435060704700BFC5
:1008100000100240064B002201281A701A7005D001
:10082000042802D105221A7070477047187070476B
:1008300020100240014B1860704700BF8004424204
:10084000024A136A18431062704700BF001002404A
:10085000014B1860704700BF3C044242234A10B469
:10086000536803F00C03042B38D0082B25D00BB3AE
:100870001F4A134602601D4A1E495468C4F30314FC
:100880000C5DE34043605468C4F302240C5D23FA1A
:1008900004F484605468C4F3C2240C5DE340C36074
:1008A000526810BCC2F381320A44127CB3FBF2F3EB
:1008B000036170470E4B0360DDE753685168C3F373
:1008C0008343C90303F102030BD5526892034CBF63
:1008D000094A0A4A02FB03F30360CCE7074B0360B3
:1008E000C9E7074A02FB03F30360C4E700100240B4
:1008F00000127A0000000020808D5B00001BB70012
:1009000000093D0029B9054A536923EA00005061F6
:100910007047024B5A6910435861704700100240FB
:1009200029B9054A936923EA000090617047024B98
:100930009A691043986170470010024029B9054A2E
:10094000D36923EA0000D0617047024BDA69104393
:10095000D86170470010024029B9054AD36823EADC
:100960000000D0607047024BDA681043D8607047CF
:100970000010024029B9054A136923EA00001061FA
:100980007047024B1A69104318617047001002400B
:10099000014B1860704700BF40044242014B186091
:1009A000704700BF4C004242014B1870704700BFB7
:1009B000071002404309012B0BD0022B094B00F01A
:1009C0001F000CBF1B6A5B6A23FA00F000F00100F5
:1009D0007047044B00F01F001B6823FA00F000F082
:1009E0000100704700100240024A536A43F08073CE
:1009F0005362704700100240034B9B68184214BFBB
:100A000001200020704700BF00100240014B187009
:100A1000704700BF0A10024008B5264B984218D014
:100A2000254B984221D0254B98422AD0244B9842FE
:100A300033D0244B984200D008BD01214FF48010E0
:100A4000FFF798FFBDE8084000214FF48010FFF742
:100A500091BF01214FF48040FFF77EFFBDE80840C1
:100A600000214FF48040FFF777BF01214FF40030A1
:100A7000FFF780FFBDE8084000214FF40030FFF78A
:100A800079BF01214FF48020FFF774FFBDE80840D3
:100A900000214FF48020FFF76DBF01214FF40020AB
:100AA000FFF768FFBDE8084000214FF40020FFF782
:100AB00061BF00BF003801400044004000480040D2
:100AC000004C00400050004030B504460D46038AFB
:100AD000CA889BB223F440531343038282890B8953
:100AE000888892B24989034322F4B0520B4322F022
:100AF0000C0213439BB2A381A38AAA899BB223F45D
:100B0000407387B01343A38201A8FFF7A7FE04999F
:100B10001A48039BA289844208BF0B4612F4004F77
:100B20002A6803EB830314BF5200920003EB830394
:100B3000B3FBF2F3124DA189A5FB03206422400907
:100B400000FB12330A044FEA00100AD41A013232B1
:100B5000A5FB0223C3F3431303439BB2238107B0D6
:100B600030BDD9003231A5FB0131C1F3421242EA56
:100B700000039BB2238107B030BD00BF00380140A5
:100B80001F85EB5100234FF416510C220160428166
:100B90008380C38003818381704700BF30B44B885A
:100BA0000D888C88028A2B43C988234392B20B4359
:100BB00022F4706213439BB2038230BC704700BFC3
:100BC0000023038043808380C3807047838929B9D1
:100BD00023F400531B041B0C838170479BB243F426
:100BE00000538381704700BF10B401F01F04C1F3AC
:100BF00042110123012903FA04F30FD002290CBF8B
:100C0000103014302AB9026810BC22EA03030360D2
:100C10007047026810BC1343036070470C30F1E763
:100C2000838A9BB21AB923EA010181827047194372
:100C300081827047038A23F00F031B041B0C03827D
:100C4000038A9BB219430182704700BF838923F452
:100C500000631B041B0C838183899BB21943818130
:100C6000704700BF838929B923F002031B041B0CC2
:100C7000838170479BB243F002038381704700BFBA
:100C8000038A23F020031B041B0C0382038A9BB2FC
:100C900019430182704700BF038A29B923F48043B6
:100CA0001B041B0C038270479BB243F480430382F6
:100CB000704700BFC1F30801818070478088C0F38E
:100CC0000800704783899BB243F00103838170471A
:100CD000038BDBB20383038B9BB243EA01210183C5
:100CE000704700BF038B03F47F430383038B9BB2E6
:100CF00019430183704700BF838A29B923F0200379
:100D00001B041B0C838270479BB243F02003838239
:100D1000704700BF838A29B923F010031B041B0C02
:100D2000838270479BB243F010038382704700BFF9
:100D3000838A29B923F008031B041B0C83827047A4
:100D40009BB243F008038382704700BF838919B9BF
:100D5000C3F30E03838170476FEA43436FEA534343
:100D60009BB28381704700BF838A29B923F4006353
:100D70001B041B0C838270479BB243F40063838285
:100D8000704700BF838A23F004031B041B0C83827B
:100D9000838A9BB219438182704700BF838A29B935
:100DA00023F002031B041B0C838270479BB243F0A9
:100DB00002038382704700BF0388194214BF0120D9
:100DC00000207047C94389B201807047C1F34212C5
:100DD00010B4012301F01F04012A03FA04F315D013
:100DE000022A0CBF028A828A92B21340028892B20F
:100DF0004BB10123090A03FA01F10A4214BF184654
:100E0000002010BC7047184610BC7047828992B20F
:100E10001340EBE7090A012303FA01F1C94389B240
:100E2000018070470B4B0C4A1946128810B400FB26
:100E300002F00024012258609C601A600B68054A89
:100E400003F00113012BF9D00023136010BC936051
:100E5000704700BF10E000E09200002010B442F2A2
:100E600028340549054A0B68092023F004030B6068
:100E70009070148010BC704710E000E092000020D9
:100E80000B4B10B419460B4A0024927800FB02F079
:100E9000012258609C601A600B68054A03F0011338
:100EA000012BF9D00023136010BC9360704700BF82
:100EB00010E000E09200002000B1B3E7704700BFEF
:100EC00038B50D4B4FF4FA72A3FB00135B0902FB1C
:100ED00013059BB2ADB2DCB23BB14FF4FA70FFF731
:100EE000A1FF631E13F0FF04F7D11DB12846BDE832
:100EF000384097E738BD00BFD34D6210F0B50746C4
:100F000087B0284E01210420FFF70AFD01214FF48C
:100F10008040FFF705FD244D032430466946182222
:100F20004FF400738DF80320ADF800308DF80240C7
:100F3000FFF7BAFA0422694630464FF480638DF811
:100F400003208DF80240ADF800300024FFF7ACFA22
:100F50000C23284602A9ADF812300297ADF81440D0
:100F6000ADF81040ADF80E40ADF80C40FFF7ACFD09
:100F700028460121FFF72AFE2846012240F225518A
:100F8000FFF732FE25210122022301A88DF805403A
:100F90008DF804108DF807208DF80630FFF7B2F9B0
:100FA00007B0F0BD00080140003801402DE9F041D4
:100FB000804686B0274F01210420FFF7B1FC0121B4
:100FC0004FF40030FFF7BAFC0426234D384669463B
:100FD000182303248DF803308DF80240ADF800602B
:100FE000FFF762FA6946384608238DF80240ADF8EB
:100FF000003000248DF80360FFF756FA0C232846D2
:1010000002A9ADF81230CDF80880ADF81440ADF863
:101010001040ADF80E40ADF80C40FFF755FD2846E6
:101020000121FFF7D3FD284640F225510122FFF7A9
:10103000DBFD262201230DEB06008DF805408DF81F
:1010400006408DF804208DF80730FFF75BF906B0F5
:10105000BDE8F08100080140004400409AB170B53D
:101060000446561EB6B20E444D1E15F8011F20460A
:10107000FFF720FE40212046FFF79EFE0028F9D012
:10108000B542F2D170BD70470EB430B5CCB0044655
:1010900002A805464FAB53F8041B1A46019300F013
:1010A000A1F915F8011B61B12046FFF703FE4021AD
:1010B0002046FFF781FE0028F9D015F8011B002912
:1010C000F2D14CB0BDE8304003B0704710B540F2EB
:1010D00025510C48FFF77AFE90B10B4A0948137866
:1010E0003F2B9ABF591CC9B2012111708488074A4D
:1010F00088BF0023D4542021BDE81040FFF762BE12
:1011000010BD00BF0038014090000020A400002066
:10111000EFF309800046704780F30988704700BFED
:10112000EFF308800046704780F30888704700BFDF
:10113000EFF31280704700BF80F31188704700BF43
:10114000EFF31080704700BF80F31088704700BF36
:10115000EFF31380704700BF80F31388704700BF20
:10116000EFF31480704700BF80F31488704700BF0E
:1011700000BA704740BA7047C0BA704790FAA0F002
:10118000704700BFD0E84F0FC0B27047D0E85F0F84
:1011900080B2704750E8000F704700BFC1E8430FAE
:1011A00018467047C1E8530F1846704741E80000E1
:1011B000704700BF3C4B30B418683C4940F0010018
:1011C00018605D6882B0294059601968002021F0DC
:1011D000847121F48031196019684FF41F0421F4DF
:1011E0008021196059681A4621F4FE0159609C60FB
:1011F00000900190196841F48031196003E0009B70
:10120000B3F5A06F09D0136803F400330193009B7A
:1012100001330093019B002BF1D0234B1B6813F487
:10122000003318BF01230193019B012B06D0204BF3
:101230004FF000629A6002B030BC70471D4A1A4BF2
:101240001068194640F010001060106820F003008C
:101250001060106840F0020010605A685A605A68C6
:101260005A605A6842F480625A605A6822F47C12CA
:101270005A605A6842F488125A601A6842F08072C2
:101280001A600B68084A9B01FBD51146536823F08E
:1012900003035360536843F0020353604B6803F049
:1012A0000C03082BFAD1C2E7001002400000FFF83F
:1012B00000ED00E000200240134A536803F00C03E5
:1012C000042B1BD0082B09D0104B0F4A1049526831
:1012D000C2F303128A5CD3400B61704753685168B4
:1012E000C3F38343C90303F1020309D55268920390
:1012F0004CBF084A084A02FB03F3E6E7064BE4E763
:10130000064A02FB03F3E0E70010024000127A00F5
:1013100014000020808D5B00001BB70000093D0019
:10132000704700BFFEE700BFFEE700BFFEE700BF5B
:10133000FEE700BF704700BF704700BF704700BFA7
:10134000704700BF704700BF08B5FEF7C3FF0F4CE2
:101350000F491048FFF798FE0F490E482546FFF742
:1013600093FE02E06420FFF7A7FD2378002BF9D05D
:101370000A4A0B490748FFF787FE40220021074829
:1013800000F010F800232B70ECE700BF9000002065
:10139000F41D0008003801400C1E0008A4000020C5
:1013A0003C1E000803460244934202D003F8011B8E
:1013B000FAE7704710B59AB0009104916FF00041C0
:1013C000029105914FF6FF714FF40274ADF80E10C3
:1013D0006946ADF80C4000F0E7F8009B00221A7057
:1013E0001AB010BD13460A46014602480068FFF7CE
:1013F000E1BF00BF880000202DE9F0478E688246DB
:101400009E420C46914698463ED88A8912F4906FC7
:101410003AD02568096902236F1A656905EB45050D
:1014200095FBF3F57B1C43449D4238BF1D46530595
:101430000FD5294600F0C8FB064698B13A46216907
:1014400000F050FBA38923F4906343F08003A38151
:1014500013E02A4600F016FC064670B92169504692
:1014600000F066FB0C23CAF80030A3894FF0FF3070
:1014700043F04003A381BDE8F08726613E44266027
:1014800046466561ED1BA560464528BF4646494670
:101490003246206800F031FBA36800209B1BA3604C
:1014A00023681E442660BDE8F0872DE9F74F934678
:1014B000926881460C464AB30023DBF800A00193F2
:1014C0001F4606E0DAF80030DAF8047001930AF1FA
:1014D000080A002FF6D0A668B74260D3A08910F49E
:1014E000906F17D1B7425AD332460199206800F065
:1014F00004FBA268921BA26022681644DBF8082055
:101500002660D71BCBF80870002FDBD10020CBF86A
:10151000040046E0256821690223C1EB05086569DE
:1015200008F1010205EB450595FBF3F53A449542B8
:1015300038BF1546430510D52946484600F044FB00
:101540000646A0B14246216900F0CCFAA28922F4F5
:10155000906242F08002A28118E02A46484600F0DC
:1015600091FB064690B92169484600F0E1FA0C2249
:10157000C9F80020A2894FF0FF3042F04002A2815A
:101580000022CBF80820CBF804200AE02661656130
:101590004644C8EB05052660A5603E46A2E73E46E8
:1015A000A2E703B0BDE8F08F2DE9F04F9DB00393A3
:1015B0008B8980461C060D4616460DD50B695BB916
:1015C000402100F001FB2860286118B90C23C8F8FD
:1015D0000030CDE040236B610023099320238DF878
:1015E0002930DFF89CB130238DF82A3037463C464D
:1015F00014F8013B1BB9B7EB060910D003E0252B0B
:10160000F9D02746F3E74B46324629464046FFF7D6
:10161000F3FE013000F0A780099B4B4409933B780F
:10162000002B00F0A08000234FF0FF3204930793BB
:10163000059206938DF853301A93012605222178DE
:101640004E4800F041FA671C049B38B14B4A3C46B7
:10165000801A06FA00F018430490EFE7D90644BF59
:1016600020228DF853201A0744BF2B228DF85320D7
:1016700022782A2A03D0079A00210A200BE0039A35
:10168000111D12680391002A10DA524243F0020041
:10169000079204900BE027463B780134303B092B3E
:1016A00003D800FB02320121F5E701B107923B7834
:1016B0002E2B1ED17B782A2B0AD1039B02371A1DB1
:1016C0001B680392002BB8BF4FF0FF33059310E067
:1016D000002319460593781C0A2407463A780130FE
:1016E000303A092A03D804FB01210123F5E703B1AD
:1016F000059103223978224800F0E6F940B14023F1
:10170000CBEB000003FA00F0049B01371843049070
:10171000397806221B487E1C8DF8281000F0D4F979
:1017200088B1194B33B9039B073323F00703083300
:10173000039314E003AB00932A46144B04A94046DC
:10174000AFF3008007E003AB00932A460F4B04A9D8
:10175000404600F093F8B0F1FF3F824603D0099B6A
:101760005344099342E7AB895B0601D4099801E031
:101770004FF0FF301DB0BDE8F08F00BF581E0008CD
:101780005E1E0008621E000800000000F913000839
:101790002DE9F04791461F460A698B680646934239
:1017A000B8BF1346C9F8003091F843200C46DDF865
:1017B000208012B10133C9F800302368990642BF76
:1017C000D9F800300233C9F80030256815F0060555
:1017D00010D104F1190A07E0012352463946304678
:1017E000C04701301AD00135E368D9F800209B1AB0
:1017F0009D42F1DB94F843302268003318BF012387
:1018000092060FD5E118302081F843005A1C94F855
:1018100045102244023382F8431003E04FF0FF30BA
:10182000BDE8F08704F1430239463046C047013035
:10183000F4D02268D9F80050E36802F00602042AC6
:1018400008BF5D1B2269A3680CBF25EAE57500256A
:101850009342C4BF9B1AED184FF000091A344D454E
:1018600009D00123224639463046C0470130D5D041
:1018700009F10109F3E70020BDE8F0872DE9F04305
:1018800017460A7E85B06E2A984606460C460C9B83
:1018900001F1430E00F0AE8011D8632A22D009D89E
:1018A000002A00F0BB80582A40F0CA8081F8452009
:1018B000834955E0642A1ED0692A1CD0C0E0732AEF
:1018C00000F0B08009D86F2A2ED0702A40F0B8807E
:1018D0000A6842F020020A603EE0752A24D0782A85
:1018E0003AD0ADE01A6801F14205111D1960136884
:1018F00084F84230A8E021681A6811F0800F02D005
:10190000111D196008E011F0400F02F10401196087
:1019100002D0B2F9003000E01368002B3CDA2D222F
:101920005B4284F8432037E021681A6811F0800F89
:1019300002D0111D196007E011F0400F02F10401FF
:10194000196001D0138800E01368227E5C496F2A79
:1019500014BF0A2208221BE078225A4984F8452045
:101960002268186812F0800F00F104051D6003D191
:10197000550601D5038800E00368D00744BF42F054
:10198000200222601BB9226822F02002226010226D
:10199000002084F8430001E049490A226568002DCF
:1019A000A56008DB206820F0040020602BB9002D22
:1019B0007DD175460CE0002B79D07546B3FBF2F073
:1019C00002FB1033CB5C05F8013D03460028F5D13E
:1019D000082A0BD12368DA0708D5236962689A427E
:1019E000DEBF302305F8013C05F1FF35C5EB0E03E2
:1019F00023612EE008681A6810F0800F496903D04F
:101A0000101D1860136808E010F0400F02F1040088
:101A10001860136801D0198000E019600023236169
:101A2000754616E01A68111D196015680021626874
:101A3000284600F049F808B1401B6060636804E084
:101A400004F1420584F8422001232361002384F835
:101A50004330CDF800803B4603AA21463046FFF7CD
:101A600097FE013002D14FF0FF3026E023692A466D
:101A700039463046C0470130F5D023689B0710D562
:101A8000002504F1190907E001234A46394630468A
:101A9000C0470130E7D00135E368039A9B1A9D42A5
:101AA000F2DBE068039B9842B8BF184605E00B786C
:101AB00004F1420584F842308AE705B0BDE8F083BE
:101AC000691E00087A1E000810B5C9B2024490428F
:101AD000034605D01C7801308C42F8D1184610BD61
:101AE000002010BD10B5431E0A44914204D011F8E5
:101AF000014B03F8014FF8E710BD884210B501EB28
:101B0000020301D8421E0BE09842FBD28118D21A80
:101B1000D34204D013F8014D01F8014DF8E710BD90
:101B2000994204D011F8014B02F8014FF8E710BDBB
:101B300038B50546002944D051F8043C0C1F002B51
:101B4000B8BFE41800F0D4F81E4A1368114613B960
:101B50006360146030E0A3420DD92268A01883426C
:101B600001BF18685B681218226063600C6023E094
:101B7000A24203D813465A68002AF9D118681918E6
:101B8000A1420BD12168014458188242196013D137
:101B900010685268014419605A600DE002D90C23A4
:101BA0002B6009E021686018824201BF106852680A
:101BB0000918216062605C602846BDE8384000F08A
:101BC00098B838BD9C00002070B5CD1C25F00305E9
:101BD00008350C2D38BF0C25002D064601DBA94227
:101BE00002D90C23336046E000F082F8234B1C68D6
:101BF0001A462146A1B10B685B1B0ED40B2B03D9EF
:101C00000B60CC18CD501EE08C420BBF63684B6854
:101C10001360636018BF0C4615E00C464968E9E79D
:101C2000174C23681BB9304600F052F82060294653
:101C3000304600F04DF8431C18D0C41C24F00304B7
:101C4000A0420DD12560304600F053F804F10B009E
:101C5000231D20F00700C31A0ED05A42E25070BD77
:101C6000211A304600F034F80130EBD10C233360F8
:101C7000304600F03EF8002070BD00BF9C00002000
:101C800098000020F8B5074615460E4621B91146C2
:101C9000BDE8F840FFF798BF1AB9FFF749FF28469B
:101CA000F8BD00F027F885420ED929463846FFF7DF
:101CB0008BFF044650B131462A46FFF713FF3146E9
:101CC0003846FFF735FF01E03046F8BD2046F8BD45
:101CD00038B5064C002305460846236000F07CF822
:101CE000431C02D1236803B12B6038BDE4000020FF
:101CF0007047704751F8040C0028BEBF091851F80E
:101D0000043CC0180438704738B50C4609680546CD
:101D100009B1FFF7F9FF21462846BDE83840FFF733
:101D200007BF00002B4B70B51B680446834250D0A0
:101D3000436AD3B1DB6893B10025636ADB68595904
:101D400029B10E682046FFF7F3FE3146F8E7043567
:101D5000802DF2D1636A2046D968FFF7E9FE636AF5
:101D6000196811B12046FFF7E3FE616911B1204601
:101D7000FFF7DEFE616A11B12046FFF7D9FEA16BC5
:101D800011B12046FFF7D4FEE16B11B12046FFF7F9
:101D9000CFFE216C11B12046FFF7CAFEE16D11B1F3
:101DA0002046FFF7C5FEA16D11B12046FFF7C0FE2A
:101DB000616B11B12046FFF7BBFEA3694BB1A36A6B
:101DC00020469847A16C21B12046BDE87040FFF73E
:101DD0009BBF70BD88000020044A05491368002B92
:101DE00008BF0B461844106018467047A00000203A
:041DF000E8000020E7
:101DF4000D0AF7E8F7EBD7F9BFAAB7A2B0E52D565D
:101E0400322E320D0A000000BBB6D3ADB5C7C2BD39
:101E1400D6D0D2C6CEEFC1AAB9D9B7BDCDF8D5BEFA
:101E2400A3BA6F70656E2E696F742E3130303836F8
:101E34002E636E0D0A0000005573617274312047E1
:101E4400657420446174613A200D0A25730D0A00FB
:101E540028000020232D302B2000686C4C00656680
:101E640067454647003031323334353637383941E7
:101E740042434445460030313233343536373839FD
:0C1E8400616263646566000000000000FD
:101E90000000000001020304010203040607080910
:101EA0000204060800000000000000000102030414
:101EB0000607080900A24A04000000000000000014
:101EC0000000000000000000000000000000000012
:101ED0000000000000000000000000000000000002
:101EE00000000000000000000000000000000000F2
:101EF00000000000000000000000000000000000E2
:101F000000000000000000000000000000000000D1
:101F10000000000000000000280000200000000079
:04000005080001E509
:00000001FF
